:400000000080002011000000290200002902000008B5044B1A6803F53F5302331A6000F01DF900BFFA46004010B5054C237833B9044B13B10448AFF300800123237010BD0B
:40004000C081FF1F000000008C3C0000084B10B51BB108480849AFF300800848036803B910BD074B002BFBD0BDE81040184700BF000000008C3C0000C481FF1F0881FF1F41
:400080000000000010B582B004468DF804108DF8052000F031FD204601A90222002300F041FC00F00DFD10F0020FFAD002B010BD30B583B0044600258DF804108DF80050D1
:4000C00000F01AFD642000F091FD204601A901222B4600F027FC00F0F3FC10F0020FFAD0322000F083FD00F007FD204669460122002300F07DFC00F0E3FC10F0010FFAD063
:400100009DF8000003B030BD40EA0120704700BF38B562B600F030FD00F08AFA1D2020213722FFF7AFFF1D2026212222FFF7AAFF6B2020210F22FFF7A5FF6B202321302299
:40014000FFF7A0FF01F012FA04461D202821FFF7AFFF05461D202921FFF7AAFF01462846FFF7D2FF1D202A21FFF7A2FF05461D202B21FFF79DFF01462846FFF7C5FF1D205B
:400180002C21FFF795FF05461D202D21FFF790FF01462846FFF7B8FF6B202821FFF788FF05466B202921FFF783FF2946FFF7ACFF6B202A21FFF77CFF05466B202B21FFF753
:4001C00077FF2946FFF7A0FF6B202C21FFF770FF05466B202D21FFF76BFF2946FFF794FF142000F003FD01F0C1F9001B00F0AEFE0022044B01F04AF802460B46024801F0CE
:4002000075FE9FE700005940A03C000070B51646002405E04D1C087800F0BCFC01342946B442F7DB304670BDFEE700BF08B5094B1A681044084BC31AB3F5805F02DC054BB6
:40024000186005E001F0A8F90C2303604FF0FF32104608BD0C81FF1F0082FF1F08B5104E104D16E029686B68AC68002204E051F8040B43F8040B0432A242F8D1E868002244
:4002800003E0002143F8041B04328242F9D11035013E002EE6D101F085F9FFF739FFFEE701000000CC3E000008B5124A124B1A60124A136843F40073136000230AE0032B07
:4002C00003D80F4A52F8231000E00E490E4A42F8231001332F2BF2D90C4B1A780C4B1A70094A0C4B1A6000F0BBF800220A4B1A6008BD00BF0004FA050CED00E014ED00E035
:4003000000000000290200000080FF1FBC7600400481FF1F08ED00E00081FF1FFEE700BFF0B40022174611E050F82760F3B226F0FF0608E001EB420511F812406D78A555CF
:400340000132013BDBB2002BF4D10137212FEBD9F0BC7047064B1B78DBB203F00701054A11701B09013213704422034B1A707047CF0100496E5800407658004008B50A469D
:40038000002101F040F908BD38B51D22284B1A801823284A13704D210232118002321370EF2102321180023213700222224B1A7008224FF040231A70032103F500731970C5
:4003C0001E4B1B78DBB21E490B701E4B1A8041F25122023B1A80002419250CE01A4B1B7803F0010343EA440404F003044FF4F07000F0EAFB013D0DB1032CEFD115B9032011
:40040000FFF78CFF114B4FF480721A8007221A7000220F490A704820023108701A700222033B1A700B4A137843F00703137038BD8040004082400040004300400801004974
:40044000A146004022420040254200400440004006400040A243004008B501F0C9F808BD38B572B63A4A137843F00403137000240CE0384963001A1952000A4423445B003D
:40048000C8589188FFF77AFF0134E4B2072CF0D900240BE02F49A3001A1952000A44106B516B0622FFF7D8FF0134E4B2002CF1D04FF090402849FFF733FF284A137843F014
:4004C000020313701032137843F002031370244C237843F040032370A2F58632513A137843F0100313701F481F490822FFF7B4FF1E481F490A22FFF7AFFF1E481E49082273
:40050000FFF7AAFF1D481E490822FFF7A5FF1D481D490822FFF7A0FF1C481D490822FFF79BFF1C4A137843F0080313701A4D61232B70FFF729FF81232B700122174B1A70DA
:40054000FFF708FF164821460E22FFF785FF38BDE8460040A83C00008800004803500140A04300400251004088060048C051004090060048F25100409C0600481251004099
:40058000A406004822510040AC06004832510040B4060048224300400048004004000840B043004038B50222114B1A7081220E3B1A70082202331A700F2511331D700024AC
:4005C00001331C704FF400420A4B1A602846072100F036FB2846084900F01EFB1022074B1A70074B1C70074B1C70074B1C7038BDD649004080E100E059060000E881FF1F45
:40060000EE81FF1FF681FF1FEC81FF1F08B500F0E3FA064A137843F0040313701032137843F00403137000F0DBFA08BDA543004008B5074B1B7823B9FFF7B4FF0122044B16
:400640001A70FFF7E3FF4FF40042024B1A6008BDDC81FF1F00E100E038B5A44B1C78E4B2A34B1B7813F0400F00F0378114F0010F00F01B819E4B1B78453B052B00F21281F9
:40068000DFE813F006008200100110010600DE0004F0DF0504F00A04082C42D1944B1B78DBB2452B35D1934B1B7813F0FF0F10D0914B1B681B78DBB2904A137004228B4B12
:4006C0001A7001228E4B1A704622894B1A702C46EBE08C4B1B7813F0020F0DD08A4A137843F00A0313706022814B1A704FF40042864B1A602C46D8E0854A137843F01003F8
:4007000013701022834B1A700422023B1A702C46CBE00022754B1A704A22754B1A702C46C3E00A2C2BD1784A137843F0A0031370744B1B7813F0020F14D06D4B1B7813F0FB
:40074000080F01D0092300E00A236F4A11780B4313706022664B1A704FF400426B4B1A602C46A2E06A4A137843F0100313701022684B1A700422023B1A702C4695E0002074
:4007800000F032FA2C4690E014F0020F35D15C4B1B78584A1278DBB2934210D2584A1378DBB255490968CB5CDBB254490B7004214E4B197013780133DBB2137075E0514BDA
:4007C0001B7813F0020F0CD04F4A137843F00A0313706022464B1A704FF400424B4B1A6063E04B4A137843F0100313701022494B1A700422023B1A7057E0424B1B7813F09A
:40080000020F0CD0404A137843F09A0313706022374B1A704FF400423C4B1A6045E03C4A137843F01003137010223A4B1A700422023B1A70344A137843F09003137034E0BC
:40084000354A1378DBB2354908682C490978C9B2C15413780133DBB213701378304A1278DBB2934203D21022204B1A701DE0254B1B7813F0020F0CD0234A137843F009038A
:40088000137060221A4B1A704FF400421F4B1A600BE01F4A137843F0100313700022134B1A7002E0002000F09FF914F0200F1CD00F4B1B7813F0080F01D0012300E002237F
:4008C000114A11780B431370114A137803F0EF0313701022064B1A7038BD054B1B7813F0100F02D11022024B1A7038BDD7490040E881FF1FED81FF1FF881FF1FD8490040B2
:40090000EC81FF1FF481FF1FEE81FF1F80E100E0D6490040D9490040F681FF1FF081FF1FF581FF1F002948D070B40C4626490978C9B2102906D12549097811F0080F11D137
:40094000002112E020490978C9B260290CD14FF400451F490D601F4D297801F0F7012970002102E0012100E0022149BB4526164D2E700026184D2E70184D2A70184A146017
:40098000184A1370134C227802F0FD0222704200D2B21548027013F0010F06D012220B4B1A700422023B1A7002E00122074B1A704FF400420D4B1A6002E002210846704715
:4009C000084670BC704700BFE881FF1FD949004080E200E0EE81FF1FEC81FF1FED81FF1FF881FF1FF481FF1FD849004000E100E000294AD070B40C4627490978C9B210298E
:400A000006D12649097811F0080F11D1002112E021490978C9B260290CD14FF4004520490D60204D297801F0F7012970002102E0012100E0022159BB4926174D2E70002655
:400A4000194D2E70194D2A70194A1460194A1370144C227802F0FE0222704200D2B242F001021548027013F0010F06D012220B4B1A700422023B1A7002E00122074B1A70A2
:400A80004FF400420D4B1A6002E0022108467047084670BC704700BFE881FF1FD949004080E200E0EE81FF1FF681FF1FF581FF1FF081FF1FF481FF1FD849004000E100E0C0
:400AC0004FF40042084B1A60084B1878C0B2084B1B7813F0400F01D040F004004FF40042044B1A60704700BF80E100E0EE81FF1FE881FF1F00E100E04FF40043044A1360F1
:400B0000044A107800211170034A1360704700BF80E100E0EE81FF1F00E100E07222074B1A702022013B1A700622A2331A70472210331A7000224F331A7070478964004031
:400B400010B500F049F804460A4A137843F020031370013A137843F01003137002F20112137843F01003137000F020F8204600F037F810BD9964004008B5054B1B7823B980
:400B8000FFF7CCFF0122024B1A70FFF7D9FF08BDDD81FF1F034B1B7813F0040FFAD1024B187070476965004049640040054A137843F0020313701032137843F00203137005
:400BC000704700BFA24300400230800803D000BF01380046FCD17047EFF3108072B6704780F31088704700BF01BE704710B5044605E0084B1868FFF7E7FFA4F50044B4F59A
:400C0000004FF6D8034B586800FB04F0FFF7DCFF10BD00BF1081FF1F70B504460E46074B1D681F2802D90020FFF7DEFF04F01F04103455F8240045F8246070BD08ED00E050
:400C400038B504460D46072902D90020FFF7CCFF1F2C02D90020FFF7C7FF04F01F0000F1604000F564406D01EDB2057038BD00BF10B431F0004408D0114BA1F580129A4228
:400C800008D804205DF8044B704718B902205DF8044B704701F1FF41094B01F5E0019942EFD9B4F5801F01D20320EBE7054B9C4201D00020E6E7B0FA80F04009E2E700BFA0
:400CC000FFFFDF7F0000F07F81F0004102E000BF83F0004330B54FEA41044FEA430594EA050F08BF90EA020F1FBF54EA000C55EA020C7FEA645C7FEA655C00F0E2804FEA05
:400D00005454D4EB5555B8BF6D420CDD2C4480EA020281EA030382EA000083EA010180EA020281EA0303362D88BF30BD11F0004F4FEA01314FF4801C4CEA113102D040428D
:400D400061EB410113F0004F4FEA03334CEA133302D0524263EB430394EA050F00F0A780A4F10104D5F1200E0DDB02FA0EFC22FA05F2801841F1000103FA0EF2801843FAD9
:400D800005F359410EE0A5F120050EF1200E012A03FA0EFC28BF4CF0020C43FA05F3C01851EBE37101F0004507D54FF0000EDCF1000C7EEB00006EEB0101B1F5801F1BD39C
:400DC000B1F5001F0CD349085FEA30004FEA3C0C04F101044FEA445212F5800F80F09A80BCF1004F08BF5FEA500C50F1000041EB045141EA050130BD5FEA4C0C404141EB85
:400E0000010111F4801FA4F10104E9D191F0000F04BF01460020B1FA81F308BF2033A3F10B03B3F120020CDA0C3208DD02F1140CC2F10C0201FA0CF021FA02F10CE002F19C
:400E40001402D8BFC2F1200C01FA02F120FA0CFCDCBF41EA0C019040E41AA2BF01EB0451294330BD6FEA04041F3C1CDA0C340EDC04F11404C4F1200220FA04F001FA02F37C
:400E800040EA030021FA04F345EA030130BDC4F10C04C4F1200220FA02F001FA04F340EA0300294630BD21FA04F0294630BD94F0000F83F4801306BF81F480110134013D6A
:400EC0004EE77FEA645C18BF7FEA655C29D094EA050F08BF90EA020F05D054EA000C04BF1946104630BD91EA030F1EBF0021002030BD5FEA545C05D14000494128BF41F0E9
:400F0000004130BD14F580043CBF01F5801130BD01F0004545F0FE4141F470014FF0000030BD7FEA645C1ABF194610467FEA655C1CBF0B46024650EA013406BF52EA03350E
:400F400091EA030F41F4002130BD00BF90F0000F04BF0021704730B54FF4806404F132044FF000054FF0000150E700BF90F0000F04BF0021704730B54FF4806404F13204A6
:400F800010F0004548BF40424FF000013EE700BF42004FEAE2014FEA31014FEA02701FBF12F07F4393F07F4F81F06051704792F0000F14BF93F07F4F704730B54FF4607497
:400FC00001F0004521F0004120E700BF50EA010208BF704730B54FF000050AE050EA010208BF704730B511F0004502D5404261EB41014FF4806404F132045FEA915C3FF44D
:40100000DCAE4FF003025FEADC0C18BF03325FEADC0C18BF033202EBDC02C2F1200300FA03FC20FA02F001FA03FE40EA0E0021FA02F11444C1E600BF70B54FF0FF0C4CF413
:40104000E06C1CEA11541DBF1CEA135594EA0C0F95EA0C0F00F0DEF82C4481EA030621EA4C5123EA4C5350EA013518BF52EA033541F4801143F4801338D0A0FB02CE4FF041
:401080000005E1FB02E506F00042E0FB03E54FF00006E1FB03569CF0000F18BF4EF0010EA4F1FF04B6F5007F64F5407404D25FEA4E0E6D4146EB060642EAC62141EA55511B
:4010C0004FEAC52040EA5E504FEACE2EB4F1FD0C88BFBCF5E06F1ED8BEF1004F08BF5FEA500E50F1000041EB045170BD06F0004646EA010140EA020081EA0301B4EB5C0477
:40110000C2BFD4EB0C0541EA045170BD41F480114FF0000E013C00F3AB8014F1360FDEBF002001F0004170BDC4F10004203C35DA0C341BDC04F11404C4F1200500FA05F3A9
:4011400020FA04F001FA05F240EA020001F0004221F0004110EBD37021FA04F642EB06015EEA430E08BF20EAD37070BDC4F10C04C4F1200500FA04F320FA05F001FA04F2CD
:4011800040EA020001F0004110EBD37041F100015EEA430E08BF20EAD37070BDC4F1200500FA05F24EEA020E20FA04F301FA05F243EA020321FA04F001F0004121FA04F2EC
:4011C00020EA020000EBD3705EEA430E08BF20EAD37070BD94F0000F0FD101F00046400041EB010111F4801F08BF013CF7D041EA060195F0000F18BF704703F00046520075
:4012000043EB030313F4801F08BF013DF7D043EA0603704794EA0C0F0CEA135518BF95EA0C0F0CD050EA410618BF52EA4306D1D181EA030101F000414FF0000070BD50EA11
:40124000410606BF1046194652EA430619D094EA0C0F02D150EA013613D195EA0C0F05D152EA03361CBF104619460AD181EA030101F0004141F0FE4141F470014FF0000038
:4012800070BD41F0FE4141F4780170BD70B54FF0FF0C4CF4E06C1CEA11541DBF1CEA135594EA0C0F95EA0C0F00F0A7F8A4EB050481EA030E52EA03354FEA013100F0888059
:4012C0004FEA03334FF0805545EA131343EA12634FEA022245EA111545EA10654FEA00260EF000419D4208BF964244F1FD0404F5407402D25B084FEA3202B61A65EB030553
:401300005B084FEA32024FF480104FF4002CB6EB020E75EB030E22BFB61A754640EA0C005B084FEA3202B6EB020E75EB030E22BFB61A754640EA5C005B084FEA3202B6EB82
:40134000020E75EB030E22BFB61A754640EA9C005B084FEA3202B6EB020E75EB030E22BFB61A754640EADC0055EA060E18D04FEA051545EA16754FEA06164FEAC30343EA8D
:4013800052734FEAC2025FEA1C1CC0D111F4801F0BD141EA00014FF000004FF0004CB6E711F4801F04BF01430020B4F1FD0C88BFBCF5E06F3FF6AFAEB5EB030C04BFB6EBE1
:4013C000020C5FEA500C50F1000041EB045170BD0EF0004E4EEA113114EB5C04C2BFD4EB0C0541EA045170BD41F480114FF0000E013C90E645EA060E8DE60CEA135594EAD0
:401400000C0F08BF95EA0C0F3FF43BAF94EA0C0F0AD150EA01347FF434AF95EA0C0F7FF425AF104619462CE795EA0C0F06D152EA03353FF4FDAE1046194622E750EA41062F
:4014400018BF52EA43067FF4C5AE50EA41047FF40DAF52EA43057FF4EBAE12E74FF0FF3C06E000BF4FF0010C02E000BF4FF0010C4DF804CD4FEA410C7FEA6C5C4FEA430C46
:4014800018BF7FEA6C5C1BD001B050EA410C0CBF52EA430C91EA030F02BF90EA020F0020704710F1000F91EA030F58BF994208BF90422CBFD8176FEAE37040F00100704765
:4014C0004FEA410C7FEA6C5C02D150EA013C07D14FEA430C7FEA6C5CD6D152EA033CD3D05DF8040B704700BF8446104662468C461946634600E000BF01B5FFF7B7FF0028F0
:4015000048BF10F1000F01BD4DF808EDFFF7F4FF0CBF012000205DF808FB00BF4DF808EDFFF7EAFF34BF012000205DF808FB00BF4DF808EDFFF7E0FF94BF012000205DF834
:4015400008FB00BF4DF808EDFFF7CEFF94BF012000205DF808FB00BF4DF808EDFFF7C4FF34BF012000205DF808FB00BF1FB5094B6946186800F0DAFC431C1FBF9DE80900DB
:40158000C018029BC0181CBF039BC01805B05DF804FB00BF8081FF1F014B1868704700BF8081FF1F0E4B70B51E460E4C0025E41AA410A54204D056F8253098470135F8E7E0
:4015C00002F072FC084B094C1E46E41AA4100025A54204D056F8253098470135F8E770BDB43E0000B43E0000B43E0000BC3E000010B5431E0A44914204D011F8014B03F8EE
:40160000014FF8E710BD03460244934202D003F8011BFAE770472DE9F0471E4688B0149F002BB8BF06F10043129927F02007B6BF1E4600232D23462F1446109DDDF84CA0DF
:401640000B7003D0452F03D1013501E0032300E002238DE8280406AB039307AB04932246334600F0F1FC472F804602D1119BDB0726D5462F08EB050911D198F80030302B98
:401680000AD12046314600220023FFF73DFF18B9C5F10105CAF80050DAF8003099442046314600220023FFF72FFF08B1CDF81C90079B4B4504D25A1C079230221A70F7E73C
:4016C0004046079B159AC8EB0303136008B0BDE8F087034673B50029B8BF494203F8022BB4BF2D222B22092942701ADD0DF1070426460A2291FBF2F502FB1511092D01F106
:40170000300104F8011D2946F3DC3031651E04F8011CB5421A460AD215F8012B03F8012BF7E71A463024214402F8024B5970101A02B070BD2DE9F04F91B08B4615461E465A
:401740001A9F044601F004FBD0F800A0504600F0E5FB00230E933B680990073323F0070303F108029BF818803A60D3E90023CBE91223DBE91201FFF77BFA0128DBE9120184
:4017800019D100220023FFF7C9FE10B12D238BF84330A04BA04FB8F1470F88BF1F460323CBF81030DBF8003023F00403CBF800304FF00009A1E0FFF75BFADBF8003048B960
:4017C000964A974FB8F1470F88BF17460322CBF81020E9E7DBF80420DBE91201571CCDE90A0101D1062209E0B8F1670F02D0B8F1470F05D1002A40F0C7810122CBF8042041
:40180000DBF8042043F480638DE80C00CBF800300DF1330302930DAB03930EAB059300230693CDF81080DDE90A232046FFF7F3FE08F0DF03472B07460AD10D9BD81C03DB7C
:40184000DBF80420934237DDA8F102085FFA88F8B8F1650F0D9915D8013942460BF150000D91FFF736FF0E9A81468318012ACBF8103003DCDBF80020D10738D50133CBF89F
:40188000103034E0B8F1660F18D10029DBF8043009DDCBF810101BB9DBF80020D20721D501330B441CE01BB9DBF80020D00701D5023315E0012313E04FF067080D9B0E9A0C
:4018C000934207DBDBF80020CBF81030D10709D5013305E0002BD4BFC3F1020301231344CBF810300D9B4FF00009CBF858309DF8333013B12D238BF843300096204659469F
:401900000FAA2B4600F05CF9013002D14FF0FF3052E1DBF800305A0505D4204629463A46DBF8103008E1B8F1650F40F2D080DBE9120100220023FFF7E7FD50B3204629469A
:40194000384A0123B0470130E0D00E9B0D9A9A4209DBDBF80030D80705D4DBF800309F0700F1108107E1204629465246099BB0470130CBD000270E9B013B9F42EDDA20461D
:4019800029460BF11A020123B0470130BED00137F1E70D9B002B29DC20462946214A0123B0470130B2D00D9B2BB90E9B1BB9DBF80030D907D1D5204629465246099BB04736
:4019C0000130A3D04FF000080D9B20465B429845294608DA0BF11A020123B047013095D008F10108F0E73A460E9BA5E0DBF858200E9B9A42A8BF1A46002A914602DC4FF01E
:401A000000081CE0204629463A464B46B0470130F5D17BE7F03C0000EC3C0000F83C0000F43C0000FC3C0000204629460BF11A020123B04701303FF469AF08F10108DBF823
:401A40005830B9F1000FB4BF1A46C9EB03029045EADB07EB03080D9A0E9B9A4210DBDBF80030DA070CD40E9A1744C8EB07030D9FD21B9342A8BF1346002B1F4608DC0EE0D7
:401A8000204629465246099BB0470130EBD13DE7204629464246B04701303FF437AF4FF000080AE0204629460BF11A020123B04701303FF42BAF08F101080D9A0E9B002F77
:401AC000A3EB0203A8BFDB1B9845EBDB45E70E9A012A01DCDB0736D5204629463A460123B04701303FF412AF204629465246099BB04701303FF40AAFDBE9120100220023B4
:401B0000FFF702FDE8B90E9B204629467A1C013B1DE0204629460BF11A020123B04701303FF4F4AE01370E9B013B9F42F1DB204629464B460BF15002B04701307FF40DAFDF
:401B4000E4E60027EFE7204629463A460123B0470130ECD1DAE6204629460BF119020123B04701303FF4D2AE0137DBF80C300F9A9B1A9F42EFDBDBF80C000F9B9842B8BF6B
:401B8000184619E00027F0E743F480638DE80C00CBF800300DF1330302930DAB03930EAB059300230693CDF810802046DDE90A23FFF731FD074640E611B0BDE8F08F00BF35
:401BC0002DE9F84391461F468A680B6906469342B8BF1346C9F8003091F843200C46DDF8208012B10133C9F800302368990642BFD9F800300233C9F80030256815F0060586
:401C00001CD094F843302268003318BF012392061FD5E118302081F843005A1C94F845102244023382F8431013E03046394604F119020123C047013007D00135E368D9F834
:401C400000209B1A9D42F0DBDBE74FF0FF30BDE8F8833046394604F14302C0470130F4D02268D9F80050E36802F00602042A08BF5D1B2269A3680CBF25EAE5750025934249
:401C8000C4BF9B1AED184FF00009A9450ADA3046394604F11A020123C0470130D5D009F10109F2E70020BDE8F88300002DE9FF410C461746227E98466E2A06460A9B01F1AB
:401CC000430100F0B08012D8632A23D00AD8002A00F0BD80582A40F0CC8084F84520DFF804E257E0642A1ED0692A1CD0C1E0732A00F0B18009D86F2A2ED0702A40F0B98035
:401D0000226842F0200222603FE0752A24D0782A3BD0AEE01A6804F14205111D1960136884F84230A9E020681A6810F0800F02D0101D186008E010F0400F02F10400186049
:401D400002D0B2F9003000E01368002B3EDA2D225B4284F8432039E020681A6810F0800F02D0101D186007E010F0400F02F10400186001D0138800E01368227EDFF864E1FC
:401D80006F2A0CBF08220A221CE07822DFF858E184F845202268186812F0800F00F104051D6003D1550601D5038800E00368D00744BF42F0200222601BB9226822F02002B3
:401DC00022601022002084F8430002E0DFF814E10A226568002DA8BF2068A560A4BF20F00400206003B965B10D46B3FBF2F002FB10331EF8033005F8013D03460028F4D1E2
:401E000000E00D46082A0BD12368DA0708D5236962689A42DEBF302305F8013C05F1FF35491B21612EE025681A6815F0800F606903D0151D1D60136808E015F0400F02F106
:401E400004051D60136801D0188000E01860002323610D4616E01A68111D1960156800212846626800F080FF08B1401B6060636804E004F1420584F84220012323610023DA
:401E800084F84330CDF800803046214603AA3B46FFF796FE013002D14FF0FF301FE0304639462A462369C0470130F5D023689B0705D4E068039B9842B8BF18460FE000254B
:401EC000E368039A9B1A9D42F3DA3046394604F119020123C0470130DED00135F0E704B0BDE8F081FE3C00000F3D00000FB40A4B13B51C6824B1A36913B9204600F0A0FE28
:401F000005AB2046A168049A019301F0E9FA02B0BDE8104004B070478081FF1F034613F8012B002AFBD1181A01387047084601F0A5BE2DE9F74F03690C698046A3427EDBD0
:401F4000013C01F114074FEA840E00F1140606EB0E0357F82450019356F824300135B3FBF5F507EB0E09BDB34FF0000A3846B446D34650F8043B9AB21B0C02FB05A26B43D9
:401F800003EB124392B2C2EB0B0BBCF800204FEA134A5A441FFA83FBDCF800304845CBEB134303EB224392B242EA03424FEA234B4CF8042BDDD956F80E306BB9019B043B38
:401FC000B3421A4602D8C8F8104005E01268043B002AF8D1013CF3E7404601F0E4F800282BDB304601354FF0000E57F8042B036891B2C1EB0E0E120C99B27144C2EB13436B
:4020000003EB214389B24FEA234E4F4541EA034340F8043BE9D956F8242006EB840362B9043BB3421A4602D8C8F8104005E01268043B002AF8D1013CF3E7284600E0002072
:4020400003B0BDE8F08F00002DE9F04F456A95B08246219CCDE9022345B9102000F07CFECAF82400456085600560C560DAF82430196859B15A68012393404A608B605046B9
:4020800000F0B5FEDAF8243000221A60039BA24A002BBDBF01232360039B0023BCBF23F000430393039FA8BF236027F000431B0D1B0593421DD142F20F73209A1360029B4A
:4020C00043B9964A964BC7F31300002814BF1846104600E09248229B002B00F06985C37813B100F1080300E0C31C229A136000F05FBDDDE902450022204629460023FFF715
:4021000003FA804658B1209A01231360229B002B00F03C8583481860013800F049BD13AB009312AB0193504622462B4601F0B6F8C7F30A5607905EB1C5F3130343F07F5136
:40214000204641F44011A6F2FF36CDF844801DE0139B129E1E446FF482639E42A1BF029A06F2124322FA03F06F4BB7BF6F4B9B1B029A9B1BAABF9F4002FA03F03843FEF747
:40218000E5FE0123A1F1F871013E11930022684BFEF79EFD5AA3D3E90023FEF74DFF5AA3D3E90023FEF796FD044630460D46FEF7DDFE57A3D3E90023FEF73EFF02460B46CD
:4021C00020462946FEF786FD04460D4601F006FD29468346002220460023FFF79FF958B15846FEF7C3FE02460B4620462946FFF78BF908B90BF1FF3BBBF1160F0DD84D4B06
:4022000003EBCB03D3E90001DDE90223FFF7A4F930B10BF1FF3B002300E00123109300E01090129B9E1B731E0A9345BF5B420993002300234CBF0A930993BBF1000F07DB4E
:402240000A9BCDF834B05B440A9300230B9308E0099BCBEB03030993CBF100030B9300230D931E9B092B29D8052BC4BF043B1E931E9BC8BF0025A3F10203D8BF0125032B95
:4022800021D8DFE803F0020E0410002300E001230C931F9B002B20DC0123069305931A4619E0002300E001230C931F9B5B4406930133012B0593B8BF012311E0012500236D
:4022C0001E930C9501E001230C934FF0FF3306930593002212231F9202E01F9B06930593DAF8244000226260042101F114029A4222D86268490001326260F6E7AFF300804D
:4023000061436F63A787D23FB3C8608B288AC63FFB799F501344D33F0000F07F203D0000293D0000FD3C00000EFCFFFFEEFBFFFF0000F83F983D00005046616800F022FD2B
:40234000DAF8243020601B680893059B0E2B00F24781002D00F04481DDE90223BBF1000FCDE90E2331DDB14A0BF00F034FEA2B1602EBC303F006D3E900450CD5DDE90E01A7
:40238000AB4B06F00F06D3E90823FEF77FFF0327CDE9020100E00227DFF8948276B1F10708D5D8E9002320462946FEF745FE04460D460137761008F10808EFE7DDE90201F9
:4023C00022462B46FEF762FF1BE0CBF10004DCB1DDE90E01954B04F00F0203EBC203D3E90023FEF729FE924D241102274CB1E20704D5D5E900230137FEF71EFE6410083527
:40240000F4E7CDE9020100E00227109BDBB1DDE90245002220462946864BFFF77FF890B1059B83B1069B002B40F3D680294620460022814BFEF700FE0BF1FF36CDE902017C
:402440000137069D01E05E46059D3846DDE90289FEF78CFD42464B46FEF7EEFD774B0022FEF738FCCDE90201039BA3F150740394CDB9404649460022714BFEF729FC029A92
:40248000234680468946FFF767F8002840F0408240464946029A04F10043FFF73FF8002840F0308298E0614B0C996A1E03EBC203002947D0D3E9002300206249FEF7E6FEC8
:4024C000DDE90223FEF704FCCDE90201089C4946404601F083FB0746FEF748FD02460B4640464946FEF7F4FBDDE90223303704F8017B80468946FFF711F8002840F0378392
:4025000042464B4600204B49FEF7E2FBDDE90223FFF704F8002840F0D080089BE31AAB425ADADDE902010022434BFEF785FD0022CDE90201404B40464946FEF77DFD804616
:402540008946C4E7D3E90001DDE90223FEF774FD089BCDE902015C191D464946404601F03DFB0746FEF702FD02460B4640464946FEF7AEFB303705F8017BA5428046894678
:4025800023D100222F4BDDE90201FEF7A3FB02460B4640464946FEF7DFFF002840F08D80DDE9022300202749FEF792FB02460B4640464946FEF7B2FF70B114F8013C621E0E
:4025C000302B40F0D4821446F7E700221A4BFEF733FD80468946C0E7DDE90E23CDE90223139B002BC0F28A80BBF10E0F00F386800E4B03EBCB03D3E900671F9B002B23DA97
:40260000059B002B20DC40F07C81304600220C4B3946FEF711FDDDE90223FEF793FF059D2E46002840F06F8174E100BF983D0000603E00000000F03F0000244000001C40EF
:40264000000014400000E03F089CDDE9028932463B4640464946FEF719FE01F0BFFA0546FEF784FC32463B46FEF7E6FC0B46024649464046FEF72CFB05F1300E089B04F801
:4026800001EBC3EB040E059B9E452AD102460B46FEF720FB32463B4680468946FEF75CFF70B94046494632463B46FEF72DFF002800F05E82EB0703D45AE2B34600E01C46D9
:4026C00014F8012C631E392A07D1089A9342F6D13023137013460BF1010B1A7801321A7046E20022A34BFEF7A7FC0022002380468946FEF709FF0028A9D039E20C9A002AEE
:4027000032D01E9A012A0ADC119A12B103F2334302E0129BC3F136030B9D099C18E0059B5D1E0B9BAB42B7BF0B9B5D1BEA1A0D9BBEBF0B959B180D93059BB8BF0025002B6F
:40274000B9BF099B059A099C059BBCBF9C1A0023099A50461A4409920A9A01211A440A9200F0E7FB064602E00B9D099C0C9E64B10A9B002B09DDA342A8BF2346099AE41AFB
:40278000D21A09920A9AD31A0A930B9B002B20DD0C9BC3B1002D10DD31462A46504600F061FC0646079A3146504600F0CBFB07460799504600F01BFB07970B9B5A1B08D0CD
:4027C0005046079902E0504607990B9A00F04AFC07905046012100F0ACFB0D9B0546002B0ADD29461A46504600F03CFC1E9B0546012B04DD00271BE01E9B012B13DC029B94
:402800008BB9039BC3F313037BB9039B23F000473F0D3F0557B1099B0127013309930A9B01330A9302E0002700E0029F0D9B43B12B6905EB8303186900F02EFBC0F1200079
:4028400000E001200A9B184410F01F0008D0C0F12003042B02DDC0F11C0002E008D018461C30099B0444034409930A9B03440A93099B002B05DD504607991A4600F040FC81
:4028800007900A9B002B05DD294650461A4600F037FC0546109BEBB10798294600F083FC002817DA0023504607990A2200F0B6FA0C9B0BF1FF3B0790002B00F06B81314608
:4028C000002350460A2200F0A9FA069B0646002B33DC68E1059B002B26DC1E9B022B23DD059B0693069B73B929460522504600F095FA05460798294600F055FC002809DCE5
:4029000001E000252E461F9B089C6FEA030B08E0B3462E46089B089A5C1C312313700BF1010BB14600260FE10C9B23B9059B0693089F079CC9E0059B0693002C05DD3146ED
:402940005046224600F0DCFB0646AFB17168504600F018FA0446326906F10C01023292000C30FEF745FE50462146012200F0C8FB814602E000002440B146089F079C2946C2
:402980002046FFF7D6FA3146099000F13008204600F009FC4A4605902946504600F01FFCC26803463AB919462046079300F0FBFB079B024600E0012250461946079200F00C
:4029C00016FA079A92B91E9B83B9029B03F0010363B9B8F1390F3B4607943ED0059B7C1C002BC4BF099B03F131083DE0059B002B04DA002AC446079408DC21E024D11E9B3C
:402A000013BB029B03F00103F3B9F2E72146012250460597CDF8088000F072FB2946079000F0C1FB0028DDF808C0059B03DC07D118F0010F04D0B8F1390F0ED008F1010CBA
:402A40007C1C87F800C07FE0002A07F101020EDDB8F1390F3B46079403D1392201371A7057E0144608F1010887F800806CE0089B1746D31A02F8018C069A93423AD02146DA
:402A80000A220023504600F0C9F94E450446314650464FF00A024FF0000304D100F0BEF9064681466BE700F0B9F9494606460A225046002300F0B2F9814660E7214650461F
:402AC0000A22002300F0AAF9044620462946FFF730FA089B00F1300807F8018B069AFB1A9342EBDB089BB146012AACBF9B1801331F46002621460122504600F001FB2946F1
:402B0000079000F050FB002803DC15D118F0010F12D03C4614F8013C621E392B09D1089B9A4204D10BF1010B3123089A02E01446F0E70133137007E03C4614F8013C621E05
:402B4000302B01D11446F8E75046294600F04FF9B9F1000F0CD02EB14E4503D05046314600F045F95046494600F041F900E0B3465046079900F03BF90023209A23700BF1AF
:402B800001031360229B1BB11C6001E00A480FE008980DE0069B002B3FF7CAAE1E9B022B3FF7A0AEC4E61E9B022B3FF79BAEC4E615B0BDE8F08F00BFFC3C0000AFF300804B
:402BC000014900F0A7B800BF653A000010B50446002303604360836081814366C28103614361836119465C300822FEF70CFD054B24626362044BA362044BE362044B23637E
:402C000010BD00BF11370000333700006B3700008F37000070B568234D1E5D430E4605F1740100F0DFFB044640B1002180E842000C30A06005F16802FEF7E5FC204670BD9F
:402C4000836910B5044633BB8364C3640365124B124A1B688262984204BF0123836100F01FF86060204600F01BF8A060204600F017F80421E06000226068FFF7A7FFA068A8
:402C800009210122FFF7A2FFE06812210222FFF79DFF0123A36110BDE83C0000C12B0000F8B51B4B07461E68B36913B93046FFF7C7FF4836B4687368013B04D4B4F90C5068
:402CC00075B16834F8E733682BB938460421FFF7A1FF306008B13668ECE70C233B60F8BD4FF6FF73E3810123A38165662560A560656025616561A56104F15C002946082289
:402D0000FEF781FC6563A563A564E5642046F8BDE83C00002DE9F8438046894600F14804002694B1A5686768013F0CD4AB89012B07D9B5F90E30013303D040462946C847FF
:402D400006436835F0E72468EBE73046BDE8F883004870478481FF1F024B0146186800F041BB00BF8081FF1F10B5C9B202449042034605D01C7801308C42F8D1184610BDA5
:402D8000002010BD70B5456A04460E463DB91020FFF7E2FF6062456085600560C560656AEB6843B1636ADB6853F8260078B1026843F8262017E020460421212200F0C0FAC7
:402DC000636AE860DB68002BECD1002070BD012101FA06F56A1D2046920000F0B1FA0028F3D04660856000230361C36070BD70B5446A06460D463CB91020FFF7ADFF7062BC
:402E0000446084600460C4603DB1736A6A68DB6853F82210296043F8225070BD2DE9F04106460C460F69984601F1140E0023DEF80000013385B2010C02FB0585514301EBFB
:402E40001541ADB24FEA1148BB4205EB01414EF8041BECDBB8F1000F1BD0A3689F4212DB616830460131FFF78DFF0546226904F10C01023292000C30FEF7BAFB21463046E0
:402E8000FFF7B5FF2C4604EB87030137C3F8148027612046BDE8F081030C1B0413B90004102300E0002310F07F4F04BF0002083310F0704F04BF0001043310F0404F04BFE4
:402EC00080000233002803DB420003D5581C70471846704720207047036813F007020BD0D90722D49A074BBF5B089B08036003604CBF01200220704799B209B91B0C1022BC
:402F000013F0FF0F04BF1B0A0832190704BF1B090432990704BF9B080232D90702D45B0805D00132036010467047002070472020704710B50C460121FFF724FF012244616E
:402F4000026110BD2DE9F74F14460A69236988469A42BEBF0B46A0461C46D8F81070D4F81090D8F80830D8F8041007EB09069E42C8BF0131FFF706FF00F114052B4605EB04
:402F8000860C634503D2002243F8042BF9E704F1140208F1140102EB890301EB87070093009B01929A4257D2B2F800B0BBF1000F23D08946AE464FF0000859F8044BBEF85C
:402FC00000A0A3B20BFB03A34FEA144ADEF8004043444FEA14480BFB0A84F24604EB13449BB243EA04434F454FEA14484AF8043B01D9D646E1E7CEF80480019B0432B3F865
:4030000002A0BAF1000F21D02C4689462B684FF00008B9F800E0B4F802B09BB20AFB0EBEA346F04443EA08434BF8043B59F8043BB4F804E01B0C0AFB03E3B94503EB18438B
:403040004FEA134801D25C46E3E763600435A7E75CF8043D13B9013E002EF9DC066103B0BDE8F08F12F003032DE9F04106460F46154607D0214A013B52F823200023FFF7A3
:40308000CDFE0746AD1035D0746A3CB91020FFF763FE7062446084600460C460D6F82480D8F808407CB9304640F27121FFF741FF0023C8F808000446036004E06D1019D0E9
:4030C000206870B10446EB07F8D5394622463046FFF738FF804639463046FFF788FE4746ECE7304621462246FFF72CFF002320600360E7E73846BDE8F08100BF883E0000AA
:403100002DE9F0470C460746164623694FEA621A0AEB03094968A36809F101059D4202DD01315B00FAE73846FFF72CFE804600F114010023534504DA002241F82320013348
:40314000F8E72AEAEA73206901EB830316F01F0204F1140101EB800E14D0C2F1200C00200E689A469640304343F8040B51F8040B714520FA0CF0F3D3CAF8040048B109F1EA
:40318000020506E0043B51F8042B714543F8042FF9D3013D3846C8F810502146FFF727FE4046BDE8F08703690A6910B59B1A11D192001430143183180A4453F8044D52F856
:4031C000041D8C4202D007D3012010BD8342F4D8002010BD184610BD4FF0FF3010BD2DE9F84307460C46084611461546FFF7DBFF061E08D138463146FFF7C4FD0123036171
:403200004661BDE8F883BCBF23462C4638466168BABF1D4601260026FFF7B4FD2B69C660266905F1140904F1140101EB860709EB830800F114054FF0000C51F8042B59F8DE
:40324000044B93B29C44A3B2240CC3EB0C03C4EB124202EB23429BB24FEA224CC84543EA02428E4645F8042BE7D8BE450ED25EF8043B9AB262441B0C03EB224392B242EA7E
:4032800003424FEA234C45F8042BEEE755F8043D0BB9013EFAE70661BDE8F8832DE9F3411C4601211546089F099EFFF76BFDC4F31302C4F30A5480460CB142F48012019253
:4032C000EDB102A840F8085DFFF706FE009B50B1019AC0F1200102FA01F10B43C240C8F81430019201E0C8F81430019B002B14BF02250125C8F81830C8F8105009E001A88B
:40330000FFF7EAFD019B0125C8F81430C8F81050203034B1A4F2334404443C60C0F1350009E0A0F2324008EB850338601869FFF7B3FDC0EB45103060404602B0BDE8F081B9
:4033400038B502FB01F4214600F04CF8054618B100212246FEF757F9284638BD30B500293CD051F8042C0B1F1D49002AB8BF9B180A680C4612B95A600B6030BD93420DD2C2
:4033800019685818904201BF5A5852181A60426823605A6030BD994203D80A4651680029F9D1146815199D420AD11B682344D0188842136012D10868034413604B680CE04F
:4033C00002D90C23036030BD1C681819884201BF08684968001918605960536030BD00BFE481FF1F70B5CC1C24F0030408340C2C38BF0C24002C064603DA0C2333600020ED
:4034000070BD8C42F9D3204A136810461946A1B10A68121B0ED40B2A03D90A608B188C501FE08B420BBF5A684A6802605A6018BF0B4616E00B464968E9E7144D2B681BB980
:40344000304600F055F928603046214600F050F9421C0346D1D0C51C25F0030585420AD11C6003F10B001A1D20F00700821A0AD05142995070BD3046E91A00F039F901305E
:40348000BBD02B46ECE770BDE481FF1FE081FF1F936810B5013B002B936009DA9469A34202DBCBB20A2B03D1BDE8104000F074B91368581C10601970C8B210BDF8B5064692
:4034C0000F461446D518AC4208D0304614F8011B3A46FFF7DDFF431CF5D100E00020F8BD2DE9F0439DB00D4690460393064618B183690BB9FFF7A4FB754B9D4201D17568A3
:4035000008E0744B9D4201D1B56803E0724B9D4208BFF568AB891C070AD52B6943B10023099320238DF8293030238DF82A3041E03046294600F096F90028F0D04FF0FF30C8
:40354000C2E0039A0134111D12680391002ABBBF524243F0020307920792B8BF049323782E2B7BD0DFF88081217840460322FFF7FBFB38B1049AC8EB0000402383401343EE
:403580000493013421785548062204F101088DF82810FFF7E9FB002800F08580504B002B78D1039B073323F0070308330393099B3B44099343461C4613F8012B1AB9B4EB07
:4035C00008090ED002E0252AF5D1F8E73046294642464B46FFF772FF013070D0099B4B4409932378002B6AD000234FF0FF3204930793059206938DF853301A9304F10108BA
:403600004446DFF8E890217848460522FFF7ACFB08F10108049B30B1C9EB00000122824013430493ECE7D80644BF20228DF85320190744BF2B228DF8532022782A2A80D02A
:40364000234607991C4622780133303A092A03D80A2000FB0121F5E7079180E763782A2B0AD1039B02341A1D1B680392002BB8BF4FF0FF33059375E7611C00220C462378B6
:403680000131303B092B03D80A2000FB0232F5E7059267E703AB0093304604A92A46114BFEF748F807E003AB0093304604A92A460C4BFEF7FBFA421C07467FF478AFAB896A
:4036C0005B063FF53BAF09981DB0BDE8F08300BF303D0000503D0000703D00009E3E000035170000BD3400009A3E0000943E000038B5064C0023054608462360FCF796FD98
:40370000431C02D1236803B12B6038BDFC81FF1F10B50C46B1F90E1000F02CFA0028ABBF636DA3891B1823F48053ACBF6365A38110BD2DE9F0411D468B890746DB050C46FC
:40374000164605D5B1F90E100022022300F0B4F9A389384623F48053A381B4F90E1032462B46BDE8F04100F06BB810B50C46B1F90E1000F0A1F9431CA38915BF606523F46E
:40378000805343F48053A38118BFA38110BDB1F90E1000F0D3B8000070B50D461446064618B183690BB9FFF74BFA224B9C4201D1746808E0204B9C4201D1B46803E01F4BC6
:4037C0009C4208BFF468A369A360A3891A0709D523693BB123682069EDB2181A636998420FDB08E03046214600F03CF80028F1D04FF0FF3070BD3046214600F033F9002813
:40380000F6D1A3680130013BA36023685A1C22601D706369984204D0A389DB0707D50A2D05D13046214600F01DF90028E0D1284670BD00BF303D0000503D0000703D000008
:4038400038B5074C054600202060084611461A46FCF7DCFC431C02D1236803B12B6038BDFC81FF1F314B70B51D6806460C4625B1AB6913B92846FFF7E3F92D4B9C4201D1DF
:403880006C6808E02B4B9C4201D1AC6803E02A4B9C4208BFEC68A3899AB211071DD4D50602D40922326038E0500712D5616B41B104F14403994202D03046FFF74FFD0023FA
:4038C0006363A38923F02403A3810023636023692360A38943F00803A38123694BB9A38903F42073B3F5007F03D03046214600F0F5F8A38913F0010205D00022A260626905
:403900005242A26103E0990758BF6269A26022694AB903F0800080B230B143F04003A3814FF0FF3070BD002070BD00BF8081FF1F303D0000503D0000703D000038B5064C2F
:40394000002305460846236000F070F9431C02D1236803B12B6038BDFC81FF1F8A892DE9F041054610070C4657D44B68002B02DC0B6C002B18DDE66AB6B102F480520023F5
:4039800092B22F682B600AB1626D10E0216A28460123B047411C024609D12B683BB11D2B01D0162B46D12F600020BDE8F081A3895B0705D56368D21A636B0BB1236CD21ABB
:4039C000E66A00232846216AB047461CA38905D12A681AB11D2A01D0162A19D1002262602269D904226004D5421C01D12B6803B96065616B2F600029D6D004F14403994235
:403A000002D02846FFF7AAFC00206063BDE8F08143F04003A381BDE8F0810F69002FC3D093070E680CBF4B690023C7EB06080F608B6012E0A3894FF0FF3043F04003A381D5
:403A4000BDE8F0812846216A3A464346A66AB0470028EFDD0744C0EB0808B8F1000FF1DCA2E7000038B50B6905460C46DBB118B183690BB9FFF7E4F80C4B9C4201D16C686F
:403A800008E00B4B9C4201D1AC6803E0094B9C4208BFEC68B4F90C302BB128462146BDE83840FFF75BBF002038BD00BF303D0000503D0000703D000038B5074C05460020E7
:403AC0002060084611461A4600F0C8F8431C02D1236803B12B6038BDFC81FF1FF0B58B8991B09D0706460C4625D4B1F90E10002908DAA389002513F0800F14BF40274FF49D
:403B000080670DE001AA00F047F80028F1DB029D4FF4806705F47045A5F500514D424D4130463946FFF75EFC60B9A3899A051DD443F00203A38104F1470323602361012384
:403B4000636113E00A4BB362A389206043F08003A381206167614DB13046B4F90E1000F02DF818B1A38943F00103A38111B0F0BDC12B000038B5074C0546002020600846DE
:403B800011461A4600F072F8431C02D1236803B12B6038BDFC81FF1F38B5074C0023054608461146236000F049F8431C02D1236803B12B6038BD00BFFC81FF1F38B5064CD7
:403BC000002305460846236000F040F8431C02D1236803B12B6038BDFC81FF1F4FEA410212F5001215D211D56FF47873B3EB625212D94FEAC12343F0004343EA505311F081
:403C0000004F23FA02F018BF404270474FF00000704750EA013005D111F0004008BF6FF0004070474FF00000704700BF024B58221A604FF0FF307047FC81FF1F024B582204
:403C40001A604FF0FF307047FC81FF1F024B58221A600020704700BFFC81FF1F024B58221A604FF0FF307047FC81FF1F024B58221A604FF0FF307047FC81FF1F024B5822CF
:403C80001A604FF0FF307047FC81FF1F0000000025372E33662025372E3366200D0A0000256C660D0A000000C84900401900004F00403000405100403000000001400010A4
:403CC00000140140000800400140000A004C01400002005001402000605200408006004806000000430000002081FF1F494E4600696E66004E414E006E616E00300030310F
:403D00003233343536373839414243444546003031323334353637383961626364656600496E66696E697479004E614E000000000000000000000000000000000000000099
:403D40000000000000000000000000000000000000000000000000000000000000000000000000000000000000000000000000000000000000000000000000000000000043
:403D800000000000000000000000000000000000504F534958002E00000000000000F03F000000000000244000000000000059400000000000408F40000000000088C3407C
:403DC00000000000006AF8400000000080842E4100000000D01263410000000084D797410000000065CDCD41000000205FA00242000000E876483742000000A2941A6D4234
:403E0000000040E59C30A2420000901EC4BCD64200003426F56B0C430080E03779C3414300A0D8855734764300C84E676DC1AB43003D9160E458E143408CB5781DAF154481
:403E400050EFE2D6E41A4B4492D54D06CFF08044F64AE1C7022DB544B49DD9794378EA440080E03779C34143176E05B5B5B89346F5F93FE9034F384D321D30F94877825A09
:403E80003CBF737FDD4F157505000000190000007D000000232D302B2000686C4C0065666745464700000000F8B500BFF8BC08BC9E4670474D000000A9020000F8B500BFF2
:403EC000F8BC08BC9E46704729000000E03E00000881FF1FB80000004000000000000000000000000082FF1F0000E02EC05D00001800000000366E0100000000303D0000D4
:403F0000503D0000703D000000000000000000000000000000000000E43C000000000000000000000000000000000000000000000000000000000000000000000000000027
:403F40000000000000000000000000000000000000000000000000002081FF1F963D0000993E0000993E0000993E0000993E0000993E0000993E0000993E0000993E0000F7
:403F8000993E0000FFFFFFFFFFFFFFFFFFFFFFFFFFFF0000000000000000000000000000000000000000000000000000000000000000000000000000000000000000000038
:403FC00000000000000000000000000000000000000000000000000000000000000000000000000000000000000000000000000000000000000000000000000000000000C1
:404000000000000000000000000000000000000000000000000000000000000000000000000000000000000000000000000000000000000000000000000000000000000080
:404040000000000000000000000000000000000000000000000000000000000000000000000000000000000000000000000000000000000000000000000000000000000040
:404080000000000000000000000000000000000000000000000000000000000000000000000000000000000000000000000000000000000000000000000000000000000000
:020000040003F7
:0200000480007A
:40000000084F0040025200400364004002650040010101400103014002050140050701404D0801404C0901405D0A0140330B0140020D0140010F0140051501400117014082
:400040005018014041190140611A01404C1B014005400140034101400D4201401343014002440140034501400746014004470140054801401B490140094C01400D4D014018
:40008000045001400251014001800A930D80162D1980221B25802E6318601940883889728B0F890F8B0FE208E604E080E210E204E601E890EA08EC100206060418061A0121
:4000C0001E0227012F013001320635013A083F105418580459045B045D105F01803C824184048510870C89208B038C678D1C8E188F0292049418987F9C3C9D149E42A0105C
:40010000A10CA311A408A540A909AB10AD10AE43B058B120B340B420B51FB61FB808BA82BE14BF05C026C104C6CBC7E0C82CC9FFCAFFCBFFCEF0CF44D00CD602D711D8045C
:40014000D904DA04DB04DC11DD11DF01E6C0EA40EB020040010A0280050509080A050B400E0A10801202130419121A011B081D05211022082380270828A02A602F2231804C
:40018000380439603DC03E304084424048044B205180521159105F026580670869186B01709471087202730482088308878090049248951896109D059E509F01A207A404FD
:4001C000A540AA04AB09AE08B202B604B710C03DC2CFC40DCA5FCC08CE0ED005D204D684D830E002E890EC10EE050504061509041003110412341501162818031A1C1C2AB5
:400200001E142220240326042902303831043302340F35013A223F144021420349FF4AFF4BFF4F015018580459045A045C115F016040624064406540668068806A806C8088
:400240006E80820586048F0491019501960298059E029F01AA02AD07AE02B201B301B402B502B604B704BA80BE14BF50C025C203C5ECC602C807C9FFCAFFCBFFCD83CE036D
:40028000CF01D018D403D604D804D904DA04DB04DF01E040E240E440E540E680E880EA80EC80EE8000080505074009400A580E080F221250160618041A481D081E021F2017
:4002C000222A25202640272028082F01330935043601374039183F8041A845284F85558057405E805F2567808B018C088E209780A720C034C2EFC4CCCA14CCD3CE16D06ECE
:40030000D210D6F0D880E080E210832097808740E009E401E608EA0DEE10E608060116021A0127012A022B012E0430013202340435013E044020410445D54721483349FF60
:400340004AFF4BFF4DA04F0450185280580459045A045B045C225D225F01604062C06440654066C068C06AC06CC06EC081088201850C89048C028D738F0C900193739542FF
:400380009601980299639D0F9E029F70A11CA202A363A521A601A801A97FAC04B001B10FB204B31CB402B760B820BB02BE05D401D804D904DB04DC11DD10DF01004003805B
:4003C000040408400A450B200F28101112991604174019041A801B101C041D211F242040220123122510284029282C082F20310832A238683A0245224D014E0C4F08540868
:4004000055025702581159045A8077409028911892499440961497689A139B089D889E409F02A282A540A722AC20C029C26FC4CFCA67CC0FCE0FD0A0D60FE608EE08011288
:4004400003A9053709371071120E1524160C1791187119011A061B461C2C1E432208248026133030310832C033303507360F37C0380A3AA03E013F404004460449FF4A0775
:400480004BFF4C404D204EF04F055008580459045A045C115D015F01604061A8624063208602870488048B04970199019A01AB02AD02B002B102B201B301B404B704BE109B
:4004C000BF40C035C106C202C401C50CC70EC811C9FFCAFFCBFFCC62CDA0CEF0CF41D00CD407D804D904DA04DB04DC22DD21DF01E640E702E910EA30EB10ED10EE10EF1253
:400500000620070409400A590E080F081020124019201A151B821E201F2121A8222023402440264027202C282E202F11312835803654380239183D203F144302441045900A
:4005400048204D204E024F04524056045C405D015F2883048410860187208C018D089119924A9310961497609B089DA89E44A008A202A304A548A620A780A901B510C0603B
:40058000C24FC40CCA30CC66CE67D071D230D6F0E008E401EA09EE10328035808580CC30E2108280A680E62018081B011D021F803E10590467108B018D04C6F0CE20D640B7
:4005C000D88062206B206F4077607B02822083429610AF10B380B404B502D840DA40DCC0DE20E220E680EA101040C40803809840C008010804088D089840A380C00CE20263
:4006000084089840A804AB806A0885089610DA40E6100A10122016405F01650175087B0282308644930196089909A302A901AA10AF02B701C210C430D680D880DC80DE20D8
:40064000E090E480E610EAB0132814407B107F408440A008AC40C40EDE0312807408831087408E809780A008A710AB20AF08C408DE04E20200030C0310061C06000F03C016
:400680008280000043000000008080000000000083004090930083000000000000313100000000008000000000000000010808000000000000F0F000600000000000000059
:4006C00000000000000000000000000000000000000000000000000000000000000000000000000000000000000000000000000000000000000000000000000000000000FA
:4007000000000000000000000000000000000000000000000000000000000000000000000000000000000000000000000000000000000000000000000000000000000000B9
:400740000000000000000000000000000000000000000000000000000000000000000000000000000000000000000000000000000000000000000000000000000000000079
:400780000000000000000000000000000000000000000000000000000000000000000000000000000000000000000000000000000000000000000000000000000000000039
:0200000490006A
:0400000000004005B7
:0200000490105A
:04000000BC90ACAF55
:0200000490303A
:02000000680591
:0200000490402A
:4000000000000000000000000000000000000000000000000000000000000000000000000000000000000000000000000000000000000000000000000000000000000000C0
:400040000000000000000000000000000000000000000000000000000000000000000000000000000000000000000000000000000000000000000000000000000000000080
:400080000000000000000000000000000000000000000000000000000000000000000000000000000000000000000000000000000000000000000000000000000000000040
:4000C0000000000000000000000000000000000000000000000000000000000000000000000000000000000000000000000000000000000000000000000000000000000000
:0200000490501A
:0C00000000012E16106900012E30786EF1
:00000001FF